:1000000000800020BD010000512300001D230000DE
:100010001D2300001D2300001D2300001D230000E0
:100020001D2300001D2300001D230000512300009C
:10003000512300001D230000512300000D23000068
:1000400051230000512300005123000051230000E0
:1000500051230000512300005123000051230000D0
:1000600051230000512300005123000051230000C0
:1000700051230000512300005123000051230000B0
:1000800051230000512300005123000051230000A0
:100090005123000051230000512300005123000090
:1000A0003D5D00005123000051230000512300005A
:1000B0005123000051230000512300005123000070
:1000C0005123000051230000512300005123000060
:1000D0005123000051230000512300005123000050
:1000E0005123000051230000512300005123000040
:1000F00051230000E53F000051230000A14600000D
:1001000051230000A14B00005123000051230000A7
:10011000512300005123000051230000512300000F
:1001200051230000512300005123000051230000FF
:1001300051230000512300005123000051230000EF
:1001400051230000512300005123000051230000DF
:1001500051230000512300005123000051230000CF
:1001600051230000692C000051230000512300009E
:1001700051230000512300005123000051230000AF
:10018000512300005123000051230000512300009F
:10019000512300005123000051230000512300008F
:1001A000512300005123000051230000512300007F
:1001B000512300005123000051230000564B4CF204
:1001C000205210B51A804DF628121A8000BF00BFC9
:1001D00002F0C2F8514B4FF010621A60504A9A6018
:1001E000504ADA60A3F53043203B1A6812F480725B
:1001F00004D14D490A604FF4A8521A604B4B1A784B
:10020000110703D51A7842F008021A70484B2A22C7
:100210001A700023474A48499818884204D247492F
:10022000595899500433F5E7454A464B9A424FF0E6
:10023000000302D242F8043BF7E74349434A5958C6
:1002400099500433B3F5DE7FF7D1414B802103F899
:10025000011B40498B42F9D13F4B1A603F4B8A2228
:100260001A70A3F5805324225A70A0221A709A792A
:100270009207FCD59A79D406FCD4394B9A7902F0CE
:100280000C02082AF9D105221A7143225A719A796F
:100290009006FCD5324B9A795106FBD5314A4FF086
:1002A000817111600521516020221A702C4B9B79BD
:1002B00003F00C030C2BF9D12B4B2C4A1A602C4B5E
:1002C0002C4A1A6000225A60072243F8042C2A4A5A
:1002D000C3F80C2D62B602F0ADFB134B1B68DA07B6
:1002E00005D5264802F0DAF9254B264A1A60264B36
:1002F0001B785B0609D5224C224A2368934204D11D
:100300001E4802F0CBF90023236006F069FA02F0E0
:1003100029F801F037FFFEE70E2005403080044049
:10032000823F04000100002B14D0034002D007409C
:1003300000E007406087FF1F588AFF1F6C8C000099
:10034000588AFF1FE899FF1F000000000082FF1F6E
:1003500000E400E05FE400E008ED00E0005006404B
:10036000004006404480044004800440C010050062
:1003700014E000E03F1901000000202057B5775934
:100380001CE00340A5C3945A00F00740FFFFFFFFA5
:10039000FFFFFFFFFFFFFFFFFFFFFFFFFFFFFFFF6D
:1003A000FFFFFFFFFFFFFFFFFFFFFFFFFFFFFFFF5D
:1003B000FFFFFFFFFFFFFFFFFFFFFFFFFFFFFFFF4D
:1003C000FFFFFFFFFFFFFFFFFFFFFFFFFFFFFFFF3D
:1003D000FFFFFFFFFFFFFFFFFFFFFFFFFFFFFFFF2D
:1003E000FFFFFFFFFFFFFFFFFFFFFFFFFFFFFFFF1D
:1003F000FFFFFFFFFFFFFFFFFFFFFFFFFFFFFFFF0D
:10040000FFFFFFFFFFFFFFFFFFFFFFFFDEF9FFFF23
:1004100010B5054C237833B9044B13B10448AFF33E
:1004200000800123237010BD588AFF1F00000000C8
:100430006C8C000008B5064B1BB106480649AFF3AB
:1004400000800648036813B1054B03B1984708BD07
:10045000000000006C8C00005C8AFF1F588AFF1FA0
:100460000000000043680B7043681B0A4B70C38890
:100470008B70C379CB7083680B7183681B0A4B71D7
:1004800043898B71C37ACB71082070470B78436026
:100490004A7843EA022343608A7843EA024343608E
:1004A000CA7843EA026343600B7983604A7943EA7E
:1004B000022383608A7943EA02438360CA7943EA6C
:1004C000026383600820704700487047D0840000B2
:1004D00000487047DE84000000487047FF84000039
:1004E00000487047188500000048704739850000B3
:1004F000004870474C85000000487047AE870000F8
:10050000004870476D850000004870478E850000E8
:10051000004870479E8500002DE9F74F8C460190FA
:10052000D0E90201040E44EA01244FEA1028060C27
:100530008CF8034048EA01684FEA112946EA01466F
:100540000F0C0D0E019C8CF801808CF802608CF869
:1005500005908CF806708CF807508CF800008CF829
:100560000410D4E90401040E44EA01244FEA1028DF
:10057000060C48EA01684FEA112946EA01460F0CC9
:100580000D0E8CF80B40019C8CF809808CF80A60E9
:100590008CF80D908CF80E708CF80F508CF80800C9
:1005A0008CF80C10D4E906014FEA1028060C040E52
:1005B0008CF8100048EA01684FEA112946EA014622
:1005C0000F0C44EA01240D0E18208CF811808CF8D1
:1005D00012608CF813408CF814108CF815908CF87D
:1005E00016708CF8175003B0BDE8F08F2DE9F0437A
:1005F0004A788E7891F805800025002314022B4359
:10060000320400270E7822431F43CC7800231F4377
:100610000B794FEA0825164391F806802206164307
:100620001F43002216432F434FEA084591F80780E5
:10063000164316432F434FEA086542EA06043D433A
:10064000C0E902454C7A91F80A8026024FEA084434
:1006500091F80880264346EA080691F80B804FEA95
:1006600008643443144342EA02074FF000094E7B0A
:1006700047EA090742EA040891F80C908C7B42EAA9
:10068000070545EA090527044FEA0629CC7B49EA14
:10069000050948EA020849EA0709270642EA080666
:1006A00047EA0907C0E904674C7C91F812802602EA
:1006B0004FEA084491F81080264346EA080691F86C
:1006C00013804FEA08643443144342EA02074FF0B0
:1006D00000094E7D47EA090742EA040891F81490A0
:1006E0008C7D42EA070545EA090527044FEA0629F9
:1006F000CC7D49EA050949EA070948EA02082706C4
:1007000042EA080647EA0907C0E906671820BDE87B
:10071000F083FFFF00487047BF8500000048704726
:10072000D585000000487047F685000000487047F6
:100730001386000070B5054608300E46FFF7ECFE44
:100740000446311905F12800FFF7E6FE204470BD8C
:1007500070B5054608300E46FFF748FF04463119CC
:1007600005F12800FFF742FF204470BD00487047A4
:1007700034860000004870474886000043680B70CC
:100780001A0A4A701A0C1B0E8A70CB7083680B71A0
:100790001A0A4A711A0C1B0E8A71CB71C3680B724C
:1007A0001A0A4A721A0C1B0E8A72CB720C207047FE
:1007B0008B784A781B0443EA02230A781343CA78E9
:1007C00043EA026343608B794A791B0443EA0223BC
:1007D0000A791343CA7943EA026383608B7A4A7ABF
:1007E0001B0443EA02230A7A1343CA7A43EA0263E8
:1007F000C3600C207047FFFF004870476986000007
:10080000004870477A860000004870479B860000C9
:1008100000487047B3860000044B42681A60044BDE
:1008200082681A60034BC2681A607047048BFF1F0E
:100830007C95FF1F708BFF1FD0E904230949C1E994
:100840000023094B026C1A60426C02F100425A60AC
:10085000064B82B01B680193019A054B1A6002B0E7
:10086000704700BFF095FF1F3095FF1F1496FF1FC4
:100870004C95FF1F90F85408704738B5054600F1B5
:100880000C042046FFF794FFEB692046984738BDDB
:10089000006A70470048704769860000004870474A
:1008A0007A86000038B5054600F110042046FFF7AF
:1008B0004FFFAB6D2046984738BDC06D7047FFFFB6
:1008C00000487047348600000048704748860000A2
:1008D0002DE9FF4183880B7083881B0A4B70054606
:1008E00080680C4606F09CF804AB064643F80C0DF5
:1008F0001868C4F80200A9683246A01D01F04AFC3D
:10090000E86806F08DF804AB06F1060843F8080D18
:100910000746186844F808000A36E9683A46A019FC
:1009200001F038FC286906F07BF804AB3E4443F83C
:10093000040D07461868A0510436A0193A462969E3
:1009400001F028FCF0196B69235404441A0A627000
:1009500004301A0C1B0EA270E37004B0BDE8F081E5
:100960007FB50A7882800346487842EA00229A805E
:10097000D1F80200019001988A1D841D551AA542E4
:1009800004D212F8015B02F8025CF7E70844002287
:1009900042714A1D9A6008590290201D029C02462D
:1009A0000444A24205D28D188E5C05F8016C013218
:1009B000F7E70A1901380844002502F8015CD860FD
:1009C000106803900398043420442246824205D2E2
:1009D0008D188E5C05F8016C0132F7E70A18013CAE
:1009E0000C44002502F8015C1C6195785478D2789B
:1009F0002D0445EA04250C5C45EA040141EA026243
:100A000004305A6104B070BD73B503790B700546AC
:100A100080680E4606F004F802AB044643F8040D65
:100A20001868C6F80100A968701D224601F0B2FBE3
:100A3000601D02B070BD37B50B46024613F8010BBE
:100A4000107118680190019C4B1D601D5D1A854254
:100A500004D213F8015B03F8025CF7E70C440023AF
:100A600004312371916003B030BD2DE9F743037960
:100A70000B70002305460C464B708B70CB700A1D23
:100A800028795E1CDBB29842C4EB020102F1040239
:100A90000FD9E96851F8233002F8043C190A02F82A
:100AA000031C190C1B0E02F8013C02F8021C334611
:100AB000E6E72B7C6354631800225A709A70DA7050
:100AC0000B1D2344297C501CD2B29142C4EB030677
:100AD00003F104030FD9A96951F8222003F8042C6B
:100AE000110A03F8031C110C120E03F8012C03F871
:100AF000021C0246E6E72B7FA355A2190023537080
:100B000093700436D3702A7F5FFA83F8424503F16D
:100B1000010915D96B6A53F8280005F081FF02AB73
:100B2000074643F8040D1868A0516B6A0436A019F3
:100B300053F828103A4601F02DFB3E444B46E2E7BD
:100B4000304603B0BDE8F083436873B50B7043686B
:100B50001B0A4B70C3888B70C379CB7083680B7191
:100B600083681B0A4B7143898B71C37ACB71C3684D
:100B70000B72C3681B0A4B72C3898B72C37BCB7227
:100B8000044600690D4605F04BFF02AB064643F8EC
:100B9000040D1868E860216905F11000324601F083
:100BA000F9FA06F1100002B070BD70B505460430C8
:100BB0000E46FFF7C9FF0446311905F11800FFF78B
:100BC000ABFC204470BD70B5044604300D46FFF701
:100BD000BBFF237E2B542B18627E5A70A27E9A7024
:100BE000C61CA91904F12000FFF796FC0644A919B8
:100BF00004F14000FFF790FC0644A91904F16000DD
:100C0000FFF78AFC304470BD37B50A78426003466E
:100C1000487842EA00225A60887842EA00425A60E4
:100C2000C87842EA00625A600A799A60487942EAD2
:100C300000229A60887942EA00429A60C87942EAC2
:100C400000629A600A7ADA60487A42EA0022DA6040
:100C5000887A42EA0042DA60C87A42EA0062DA60E0
:100C6000C8680190019C01F1100204F11000551AAE
:100C7000854204D212F8015B02F8025CF7E70C44EB
:100C800000220F31E273196103B030BD70B5054623
:100C900004300E46FFF7B8FF0446311905F118007D
:100CA000FFF7A4FC204470BD70B5044604300D4627
:100CB000FFF7AAFF2B5C23762B18C61C5A786276A6
:100CC0009B78A376A91904F12000FFF78FFC064456
:100CD000A91904F14000FFF789FC0644A91904F1A1
:100CE0006000FFF783FC304470BDF7B50E780379E0
:100CF000B34204460D4604D2C068B10005F052FE6E
:100D0000E06026712A1D00212379481CC9B28B425C
:100D1000C5EB020702F1040214D912F8023C12F8E2
:100D2000036C1B0443EA062312F8046C334312F8E5
:100D3000016C43EA0663A360E368A66843F8216098
:100D40000146E1E7EE5D237CB34204D2A069B10025
:100D500005F028FEA0613B1D26742B440022217C57
:100D6000501CD2B29142C5EB030703F1040314D91E
:100D700013F8021C13F8036C090441EA062113F866
:100D8000046C314313F8016C41EA06616161A169A9
:100D9000666941F822600246E1E7EE5D237FB342D7
:100DA00004D2606AB10005F0FDFD60623B1D26774C
:100DB0000022217FD6B2B1421CD9E8580190019996
:100DC000181D014403468B4206D2EF1815F803C0E4
:100DD00007F801CC0133F6E76B180027013803F858
:100DE000017C284420620B46616A206A41F8260093
:100DF0000132DEE7184603B0F0BDFFFF034B82B0BF
:100E00001B680193019802B0704700BF1496FF1F42
:100E1000034610B5C06804680A4624689968A0476C
:100E200010BDFFFF054B036000220023C0E9022331
:100E3000C0E90423C0E90623704700BF18840000FE
:100E400010B50368017A1C7843681A78437A1A400F
:100E5000837A0C4203F0030318BF43F004030AB182
:100E600043F008039A10013B82720D2B14D8DFE87F
:100E700003F0070A0D0A1310070710130A0D0A07DB
:100E8000C368013307E0C368013B04E0C368023371
:100E900001E0C368023BC36010BD10B5037C012BA9
:100EA000044603D872B6FFF7CBFF00E072B6E068E5
:100EB00062B610BD08B5034BD3F88400FFF7C0FF3E
:100EC00008BD00BF4099FF1F08B5034BD3F8800051
:100ED000FFF7B6FF08BD00BF4099FF1F08B5024BE2
:100EE000D86FFFF7ADFF08BD4099FF1F08B5024B53
:100EF000986FFFF7A5FF08BD4099FF1F08B5024B8B
:100F0000586FFFF79DFF08BD4099FF1F08B5024BC2
:100F1000186FFFF795FF08BD4099FF1F08B5024BFA
:100F2000D86EFFF78DFF08BD4099FF1F08B5024B33
:100F3000986EFFF785FF08BD4099FF1F08B5024B6B
:100F4000586EFFF77DFF08BD4099FF1F08B5024BA3
:100F5000186EFFF775FF08BD4099FF1F08B5024BDB
:100F6000D86DFFF76DFF08BD4099FF1F08B5024B14
:100F7000986DFFF765FF08BD4099FF1F08B5024B4C
:100F8000586DFFF75DFF08BD4099FF1F08B5024B84
:100F9000186DFFF755FF08BD4099FF1F08B5024BBC
:100FA000D86CFFF74DFF08BD4099FF1F08B5024BF5
:100FB000986CFFF745FF08BD4099FF1F08B5024B2D
:100FC000586CFFF73DFF08BD4099FF1F08B5024B65
:100FD000186CFFF735FF08BD4099FF1F08B5024B9D
:100FE000D86BFFF72DFF08BD4099FF1F08B5024BD6
:100FF000986BFFF725FF08BD4099FF1F08B5024B0E
:10100000586BFFF71DFF08BD4099FF1F08B5024B45
:10101000186BFFF715FF08BD4099FF1F08B5024B7D
:10102000D86AFFF70DFF08BD4099FF1F08B5024BB6
:10103000986AFFF705FF08BD4099FF1F08B5024BEE
:10104000586AFFF7FDFE08BD4099FF1F08B5024B27
:10105000186AFFF7F5FE08BD4099FF1F08B5024B5F
:10106000D869FFF7EDFE08BD4099FF1F08B5024B98
:101070009869FFF7E5FE08BD4099FF1F08B5024BD0
:101080005869FFF7DDFE08BD4099FF1F08B5024B08
:101090001869FFF7D5FE08BD4099FF1F08B5024B40
:1010A000D868FFF7CDFE08BD4099FF1F08B5024B79
:1010B0009868FFF7C5FE08BD4099FF1F08B5024BB1
:1010C0005868FFF7BDFE08BD4099FF1F08B5024BE9
:1010D0001868FFF7B5FE08BD4099FF1F08B5212825
:1010E00000F2D580DFE810F0220027002C0031004C
:1010F00036003C00410046004B00500055005A00AD
:101100005F00640069006E00730078007D0082005B
:1011100087008C00910096009B00A000A500AA000B
:10112000AF00B400B900BE00C300CD00594B002091
:1011300019605949A0E0574B0120596057499BE07D
:10114000544B02209960564996E0524B0320D960D7
:10115000544991E04F4B04201961024652498CE0FA
:101160004C4B05205961514986E04A4B0620996154
:101170004F4981E0474B0720D9614E497CE0454B00
:10118000082019624C4977E0424B092059624B49CB
:1011900072E0404B0A20996249496DE03D4B0B20BB
:1011A000D962484968E03B4B0C201963464963E02B
:1011B000384B0D20596345495EE0364B0E2099634C
:1011C000434959E0334B0F20D963424954E0314B36
:1011D0001020196440494FE02E4B112059643F49BB
:1011E0004AE02C4B122099643D4945E0294B1320DD
:1011F000D9643C4940E0274B142019653A493BE04B
:10120000244B15205965394936E0224B1620996543
:10121000374931E01F4B1720D96536492CE01D4B6B
:1012200018201966344927E01A4B192059663349AA
:1012300022E0184B1A20996631491DE0154B1B20FE
:10124000D966304918E0134B1C2019672E4913E06A
:10125000104B1D2059672D490EE00E4B1E2099673B
:101260002B4909E00B4B1F20D9672A4904E0094BA1
:10127000C3F8801028492020042201F071FA0120CF
:1012800008BD044B2120C3F884102449F4E7002052
:1012900008BD00BF4099FF1FCD100000BD10000029
:1012A000AD1000009D1000008D1000007D100000AA
:1012B0006D1000005D1000004D1000003D1000009A
:1012C0002D1000001D1000000D100000FD0F00008B
:1012D000ED0F0000DD0F0000CD0F0000BD0F00007E
:1012E000AD0F00009D0F00008D0F00007D0F00006E
:1012F0006D0F00005D0F00004D0F00003D0F00005E
:101300002D0F00001D0F00000D0F0000FD0E00004E
:10131000ED0E0000DD0E0000C90E0000B50E00004D
:1013200070B5044615460E460846022101F0E6F95E
:101330002846022101F0E2F9174A52F8363003F547
:10134000007121600121217252F83520617202F58D
:1013500000700021E16060604BF6803101397FF45C
:10136000FDAF93F8003292F8002203F00103D20798
:1013700044BF43F00203DBB2A37221463046FFF7BD
:10138000ADFE214620742846FFF7A8FE237C1844B2
:101390002074204670BD00BFD0870000FFFFFFFF14
:1013A000F8B51F4B0022D3E900011E4B03F050FE9D
:1013B00017A3D3E9002303F075FF1B4B04460D462A
:1013C0000022D3E90001174B03F042FE12A3D3E938
:1013D000002303F03DFE0EA3D3E9002303F062FFD8
:1013E00006460F4632463B462046294603F07CFC23
:1013F0000E4B3246C3E902013B462046294603F024
:1014000075FC0B4BC3E90201F8BD00BFAFF30080D0
:10141000000000609F20D83F000000A09999E13FA4
:10142000F095FF1F00004E403095FF1F988BFF1F67
:10143000D88BFF1FAFF30080F8B51248124D134C44
:10144000134F144EFFF729FD0146284604F00CFE09
:101450001148FFF722FD0146204604F005FE28460C
:1014600004F03EFE3860204604F03AFE39683060F1
:10147000284604F0B5FE20463168BDE8F84004F087
:10148000AFBE00BF3895FF1F988BFF1FD88BFF1F83
:10149000E88AFF1FA095FF1F788AFF1F04490022DA
:1014A0000023C1E900230349C1E90023704700BFBD
:1014B000F095FF1F3095FF1F2DE9F74FDFF84882A9
:1014C00098F81830002B00F0F9807E4804F0D4FE24
:1014D000002800F0F3807C4E7C4D7D4C7948DFF88D
:1014E0002CA2DFF82C92DFF82CB22A462346314694
:1014F00004F00CFFB6F90000764E04F0C5F8014682
:1015000004F00EF84FF0605104F012F903F04CFDB6
:10151000CAE90201B5F900006F4D04F0B5F80146C3
:1015200003F0FEFF4FF0605104F002F903F03CFDC0
:10153000CAE90401B4F90000684C04F0A5F80146BA
:1015400003F0EEFF4FF0605104F0F2F803F02CFDD1
:101550002A462346CAE9060131465A4804F0F8FEF5
:10156000B6F900005E4E04F08FF85E4904F0E0F832
:101570004FF0605104F0DCF85B4904F0D9F85B49A6
:1015800004F08AF903F010FDC9E90201B5F9000081
:1015900004F07AF8534904F0CBF84FF0605104F0AE
:1015A000C7F8514904F0C4F8504904F075F903F044
:1015B000FBFCC9E90401B4F900004D4C04F064F8E7
:1015C000484904F0B5F84FF0605104F0B1F84649CD
:1015D00004F0AEF8454904F05FF903F0E5FCDFF8EC
:1015E00038C1CDF804C032466346C9E90601214638
:1015F000344804F055FEB4F9000004F045F83D49C4
:1016000004F096F83C4904F093F84FF0665104F06A
:101610008FF83A4903F084FF03F0C6FC0D460446F8
:10162000B6F90000CBE9044504F02EF8314904F086
:101630007FF8314904F07CF84FF0665104F078F8F7
:101640002F4903F06DFF03F0AFFCDDF804C00F4637
:101650000646BCF90000CBE9026704F015F82549FD
:1016600004F066F8244904F063F84FF0665104F082
:101670005FF8244903F054FF03F096FCDAE90223F3
:10168000C8E90A23DAE90423C8E90C23DAE90623C6
:10169000C8E90E23D9E90223C8E91223D9E90423B2
:1016A000C8E91423D9E90623CBE90601C8E91623C2
:1016B000C8E91A67C8E91C45C8E91E0103B0BDE8BE
:1016C000F08F00BFE095FF1F7895FF1F7A95FF1FF1
:1016D000748AFF1F0C96FF1F0E96FF1F1096FF1FA8
:1016E000BE8AFF1F00007A43DB0F494000003443ED
:1016F000688BFF1F0000204100A09944000090412A
:1017000000008C4200008743A894FF1FC88AFF1F77
:101710005895FF1F8095FF1FC08AFF1F38B50446EC
:101720000D46FFF76BFB4FF47A722969B0FBF2F3B9
:101730001944216002FB13036969054A02FB031384
:101740002146204641F8043F04F064FE204638BD9F
:1017500040420F00FFFFFFFF1B4BF7B5D3E900012D
:101760001A4B1B4ED3E9002303F0C0FA0022194B99
:1017700003F06EFC0022184B03F094FD10A3D3E994
:10178000002303F065FC04460D4668461349FFF745
:10179000C5FF9DE8030006F10C0383E80300002267
:1017A000002331460E48C6E90845C6E90A23C6E9C2
:1017B0000C23FFF72DFB03B0F0BD00BFAFF300809B
:1017C000000000609F20D83F988BFF1FD88BFF1F21
:1017D000A895FF1F0000E03F00004E40188CFF1F3F
:1017E000F895FF1FAFF3008037B50A4C237E7BB11D
:1017F00068460949FFF792FF9DE8030004F10C03D6
:1018000083E80300054B064863612146FFF700FBB0
:1018100003B030BDA894FF1F188CFF1FD4860000B2
:10182000F08AFF1F1FB5084B019300230293039317
:1018300003680A211B6801AA04469847FFF7DEFAED
:10184000E06004B010BD00BFA0830000F0B587B019
:101850002C4B009300222C4BADF80420044602933D
:1018600003930493059200F114060546D5F8183841
:10187000DBB158689A68ADF804201A6803680292D0
:101880009B689847D5F81838039058680368DB6858
:1018900098474FF4806322680593D5F81838049070
:1018A0001768196920466A46B8470435B542DDD144
:1018B0002546D5F82C08E0B14368ADF804308368BC
:1018C000029303689B6898470390D5F82C08036837
:1018D000DB6898474FF4806304900593D5F82C0893
:1018E00023681F6803685B6898476A46014620467C
:1018F000B8470435B542DCD1012384F8543807B029
:10190000F0BD00BFB8830000A78A0000F0B585B025
:101910001C4B019304460023029303930D46FFF7EB
:101920006DFAE668184F2946861B01A8FEF7AEFD42
:101930004FF47A75029AB6FBF5F31A440292039AB1
:1019400005FB136607FB06220392FFF757FA029B7B
:101950000399B0FBF5F2013B9B1A23610B4B05FB8E
:1019600012050B4407FB1533636104F1100004F109
:10197000140104F04FFDFFF741FAC4F85C0805B00C
:10198000F0BD00BFA083000040420F0000CA9A3B98
:1019900070B50446FFF732FAD4F85C3842F6F82204
:1019A000C31A934284BF002384F85438D4F84038D3
:1019B000064633B1D4F86038984202D90023C4F8FF
:1019C000403860680368DB6898470028C0F2C08030
:1019D000D4F85028D4F840580244072DC4F85028B1
:1019E0000CD1D4F84C28D4F84438511C2244013B83
:1019F000C4F84C181076C4F844385DE09DB9FF284F
:101A000007D10123C4F8403806F11403C4F8603844
:101A1000D7E7FFF7F3F9801B0528D2D984F854588B
:101A20006FF0010070BD012D0ED1FE2801D10223FF
:101A3000C5E70023C4F8403894F85438002BC0D1CF
:101A40002046FFF7EFFEBCE7022D06D10022C4F8C6
:101A50004C28C4F8440803221CE0032D07D1D4F815
:101A6000442802EB0023C4F844380423A7E7042DDC
:101A70000BD1404B1340002B03DA013B63F0FF0313
:101A80000133FF2B9AD1052399E7052D07D1C4F81F
:101A900048080622C4F84028C4F8500891E7062DEB
:101AA0000ED1D4F8482802EB0023C4F848380723A5
:101AB000C4F84038D4F84438002B82D108237EE79C
:101AC000082D7FF47EAF0023C4F84038294B134023
:101AD000002B03DA013B63F0FF030133FF2B7FF49C
:101AE00070AFD4F8483863B92046FFF79BFE204614
:101AF000FFF7ACFEC4F85868C4F85C684FF0FF30DC
:101B000070BD0A2B05D1204604F11801FFF7FEFE37
:101B100057E7062B09D104F6680004F11801FFF716
:101B2000E4F8012384F864384BE70B2B03D100233E
:101B300084F8543845E704EB8303D3F89C06002867
:101B40003FF43FAF036804F118011B68984738E77A
:101B500094F8540860B1D4F8583840F6C412F31A17
:101B6000934204D92046FFF75DFEC4F85868002070
:101B700070BD00BFFF0000801FB5064B01930368D6
:101B80008DF8081003921B68072101AA984705B039
:101B90005DF804FBD083000063292DE9F041044681
:101BA0000D4603DD90F85468002E48D013681046A7
:101BB0001B6804F21F419847FF2283B284F818245F
:101BC000FE22C0B284F819241A0A84F81B240244A5
:101BD000D24384F81D5445F3072584F81C2484F867
:101BE0001A0484F81E5405220021981D904205DB3A
:101BF000A018013290F818040144F6E703F1080731
:101C00000733BFB214FA83F3C943B7F5806F83F883
:101C100018140DD804F583683E460025BD420EDA3F
:101C2000606818F8051003681B6898470135F5E7E8
:101C300020460321034AFFF79FFF4FF0FF3630464F
:101C4000BDE8F081DD860000404A00234FF4614189
:101C500010B5C2F84038C2F84438C2F84C38C2F85F
:101C600048389160144604EB8302D2F82C2842B91C
:101C70003649374A01EB83016433C1F82C2853609D
:101C800002E00133052BEED1002304EB8302D2F8EE
:101C90002C2842B92D492F4A01EB83016433C1F846
:101CA0002C28536002E00133052BEED1002304EB16
:101CB00083022649D2F8182842B9274A03F206209F
:101CC000693341F820209360D16002E00133052B95
:101CD000EDD1002304EB83021C49D2F8182842B945
:101CE0001E4A03F20620693341F820209360D16038
:101CF00002E00133052BEDD194F85438134813B9A1
:101D0000FFF746FEF8E7164A0121FFF735FF1548B1
:101D100003F0D0FF144804F04EFB1348072104F0F1
:101D20007FFA1148042104F080FA0F48002104F0E2
:101D300087FA0D48002104F08EFA0B48012104F0C7
:101D400095FA0520BDE8104000F05EBE188CFF1F1C
:101D5000748BFF1F088BFF1FF895FF1FF08AFF1F72
:101D6000168700002899FF1FE095FF1F08B5084857
:101D700004F048FB074B18765876987620B9064849
:101D8000064A0321FFF7F8FE054B00221A7008BD32
:101D9000E095FF1FA894FF1F188CFF1F29870000E4
:101DA0004888FF1FF0B53048304C314F314E85B078
:101DB000FFF773F805463048FFF76FF82A462F4DB6
:101DC0002F490346204604F007FE224628460121FB
:101DD000FFF7D2FED7E9020103F04CFB6B4602226B
:101DE000042100F005FBD6E9020103F043FB02AB3E
:101DF0000421022200F0FCFA02AB6A462046214987
:101E000004F0EAFD224628460121FFF7B5FED7E996
:101E1000000103F02FFB6B460222042100F0E8FAD8
:101E2000D6E9000103F026FB02AB0421022200F0F8
:101E3000DFFA02AB6A462046134904F0CDFD28467E
:101E400022460121FFF798FE104B11491A68114BE9
:101E500020461B6804F0C0FD284601212246FFF7FA
:101E60008BFE05B0F0BD00BF3895FF1F8C8AFF1FA9
:101E7000988BFF1FD88BFF1F788AFF1F188CFF1FBE
:101E8000388700005087000066870000E88AFF1F3F
:101E90007C870000A095FF1F30B52C4C2C4D23688B
:101EA0008BB00193019A2B68D31A092B07D9FFF73E
:101EB00077FAFFF7C1FA23680293029B2B6023682D
:101EC0000393244B039A1B68D21A234B1B689A4234
:101ED00001D3FFF7E3FA2368204D0493049A2B689B
:101EE000D31A632B06D9FFF737FC184B1B680593F1
:101EF000059B2B601A4B1B7813B1FFF737FF01E0EE
:101F0000FFF7DAFA2368174D0693069A2B68D31A5F
:101F1000632B06D9FFF768FC0C4B1B680793079BE4
:101F20002B602368104C0893089A2368D31AB3F5E2
:101F3000FA7F06D3FFF736FF044B1B680993099B12
:101F400023600A48FFF724FD0BB030BD1496FF1F35
:101F50005095FF1F4C95FF1F4C88FF1F2895FF1FB2
:101F60004888FF1F6C8BFF1FEC8AFF1F188CFF1F18
:101F7000F8B55E4804F051F95D48FEF753FF5D483F
:101F8000FEF750FF5C48FEF74DFF1721112210238A
:101F90005A4804F053F80C2315210D22584804F038
:101FA0004DF8022103225748FFF7BAF9072106220C
:101FB0005548FFF7B5F9554B55491A68554B1A6006
:101FC000554B1A68554B1A60554B1A68554B1A6099
:101FD000554B564A1A60564A5A604FF461429A600D
:101FE000002283F85428C3F8681883F86C28C3F8D3
:101FF000742883F87828C3F8802883F88428C3F8E5
:102000008C28C3F81828C3F81C28C3F82028C3F864
:102010002428C3F82828C3F82C28C3F83028C3F88C
:102020003428C3F83828C3F83C2898180132002116
:10203000B2F5806F0176F8D10A4699180132002571
:10204000B2F5806F81F81854F7D13A4C3A4B2360BF
:102050003A4B236104F11800FEF7E4FE04F1380066
:10206000FEF7E0FE364BA365364BA360364B374A8E
:102070001A60374ADA6001210022E1651A61354CA5
:102080005A619A61344ADA61344F354A354E1962E1
:102090009A606760344BA560E5602561666104F174
:1020A0002000236025766576A576FEF7BBFE04F159
:1020B0004000FEF7B7FE04F16000FEF7B3FE2B4BC5
:1020C0002B4A1D6183E814002A4C2B4BA56084E841
:1020D0008800E5602561666104F11800FEF7A2FE44
:1020E000264B274A1D6183E81400F8BDE095FF1FC9
:1020F000C88AFF1F5895FF1F8095FF1F988BFF1FF1
:10210000D88BFF1F3895FF1F788AFF1F4488FF1F59
:10211000E8830000048BFF1F3C88FF1F7C95FF1F96
:102120004088FF1F708BFF1F188CFF1F90840000DA
:10213000FC96FF1F088BFF1FA88400004884000046
:102140003908000092870000748BFF1FC0840000D4
:1021500060840000A894FF1F19080000008400009C
:102160009A870000A78A000078840000F08AFF1F89
:102170009E870000A895FF1F30840000F895FF1F80
:10218000A687000008B5FFF75FFDFFF785FE01F0A9
:1021900039FAFAE7844641EA000313F003036DD1EC
:1021A000403A41D351F8043B40F8043B51F8043B1A
:1021B00040F8043B51F8043B40F8043B51F8043B21
:1021C00040F8043B51F8043B40F8043B51F8043B11
:1021D00040F8043B51F8043B40F8043B51F8043B01
:1021E00040F8043B51F8043B40F8043B51F8043BF1
:1021F00040F8043B51F8043B40F8043B51F8043BE1
:1022000040F8043B51F8043B40F8043B51F8043BD0
:1022100040F8043B51F8043B40F8043B51F8043BC0
:1022200040F8043B403ABDD2303211D351F8043B60
:1022300040F8043B51F8043B40F8043B51F8043BA0
:1022400040F8043B51F8043B40F8043B103AEDD20F
:102250000C3205D351F8043B40F8043B043AF9D260
:10226000043208D0D2071CBF11F8013B00F8013B33
:1022700001D30B8803806046704700BF082A13D340
:102280008B078DD010F003038AD0C3F10403D21A58
:10229000DB071CBF11F8013B00F8013B80D331F88C
:1022A000023B20F8023B7BE7043AD9D3013A11F80C
:1022B000013B00F8013BF9D20B7803704B78437077
:1022C0008B7883706046704701B5EAB1102A17DB3E
:1022D00000F0070333B1C3F10803D21A013B00F841
:1022E000011BFBDCC9B241EA012141EA01418C46F4
:1022F000D308013BE0E8021CFBDC12F0070203D02C
:10230000013A00F8011BFBDC01BD00BF024B1A685B
:1023100001321A60704700BF1496FF1F08B50B4CBE
:102320002368580301D500F09FFC2368590501D5A7
:1023300001F058FE23681A0501D502F0B1F92368AF
:10234000DB04ECD502F02CFCE9E700BF348004404C
:1023500008B5FFF7E3FFFFFF014B10221A8070471B
:10236000002005407047FFFF024A136818441060C0
:10237000184670475888FF1FEFF313839BB9EFF39C
:10238000108098B9EFF3058323B10F2B04D9084AC5
:10239000985C01E04FF48070EFF311833BB183420E
:1023A00038BF184670474FF0FF30704718467047E7
:1023B000F0E300E010B50023B0FBF2F402FB1400E0
:1023C000092894BF30303730C0B2C85420460CB111
:1023D0000133F1E7CA18547022469A4206DA885C43
:1023E000CC5C8C54C8540132013BF6E7084610BD62
:1023F0002DE9F347884681EAE175A5EBE1750146D1
:10240000064691461C4603F059FB88B3304600212E
:1024100003F02CFB002814BF042003208542CCBF0E
:10242000C0EB05050025B8F1000F07DA2544AC42E2
:1024300003D0202304F8013BF9E70025002E4FF0DC
:102440007E504FF00001B8BF6A4803F00FFB10B197
:102450002D232370013441234E226370E31C22702C
:10246000A270581983423ED0202203F8012BF9E7CD
:1024700026F000473846604903F020FBB0BB3846E1
:102480005D4903F0FDFA074680BB3046002103F0AA
:10249000EDFA002814BF042003208542CCBFC0EB16
:1024A00005053D46B8F1000F07DA2544AC4203D0DC
:1024B000202304F8013BF9E700253046002103F012
:1024C000D5FA10B12D2323700134492323704E23F4
:1024D00063704622E31CA2705819834203D0202265
:1024E00003F8012BF9E70023037080E030464946EA
:1024F0006A4601AB04F067F9009E8246B9F1000F0D
:102500000BD156B990F800A03C4B3D4A0125BAF1D9
:10251000340F8CBF92469A4608E0504604F080FA89
:10252000B0420546C8BF451C06B90135019901B145
:102530000135C5EB0803002B04EB050708DD1F443C
:10254000224623449A4204D0202002F8010BF9E7E6
:10255000234611B12D221A700133002E07D1B9F193
:10256000000F1ED01A46302102F8021B27E018DAAD
:10257000B9F1000F15D01946302201F8022B2E2296
:102580005A70013732468B1B002AC6F100001344F3
:1025900004DA0844302383540132F4E7009200E067
:1025A0001346BB420FD25A1C1AF8011B1970BA42CB
:1025B00008D00099013900910029F1D19A1C2E21EF
:1025C0005970EDE73B46B8F1000F0DDA45446D4216
:1025D0001A465919891A002903DD202102F8011B26
:1025E000F7E7002DA8BF5B1900221A70204602B041
:1025F000BDE8F087000080BFFFFF7F7FCC87000031
:10260000CA8700007047FFFF00F14040A0F5922309
:102610007C2B14D9A0F594237C2B12D9A0F59623FA
:102620007C2B10D9A0F598237C2B06D9A0F59A20F5
:102630007D28064828BF0020704705487047054898
:102640007047054870470548704700BF3489FF1F31
:102650001489FF1F5C88FF1F9488FF1FE488FF1FF9
:102660000C4B03EBC00010B544682046FFF7CCFFCD
:1026700070B172B6236823F0877323F4803343F07C
:1026800080732360C4F38404034B40F8243062B6A3
:1026900010BD00BFD087000005260000044B05498F
:1026A00000221A600A60044A106010221A60704703
:1026B00014D0034004D0034000D00340212810B5BB
:1026C00018D80D4A52F8303093F880423CB10122BC
:1026D00011B183F8802010BD83F8002110BD02EBFA
:1026E000C00043681A6811B142F0030201E022F011
:1026F00002021A6010BD00BFD0870000212810B56B
:102700002BD8164A02EBC00301295B68144601D09E
:1027100004290FD154F83020012082F880024FF4B0
:10272000A2721A601A6804290CBF42F0200222F03B
:10273000200211E052F83000002280F8802211B906
:102740004FF4807208E0022902D140F2031203E044
:10275000032908BF4FF481721A6010BDD0870000B2
:10276000212870B50D463CD8042A3AD8DFE802F09B
:102770000709050B03000B2306E00A2304E00823E6
:1027800002E00C2300E009231E04164B03EBC003F8
:102790005C68216811F4E06101D1FFF7AFFF124BD3
:1027A000124AC3F89C21124AC3F8A021114AC3F867
:1027B000A421114AC3F8A8212046104AC3F8AC212D
:1027C000FFF722FF68B172B6226822F470222260FD
:1027D000C4F3840342F08072164340F8235026600D
:1027E00062B670BDD08700000082FF1F1188FF1FF6
:1027F000E587FF1FB987FF1F8D87FF1F6187FF1FB9
:10280000282838B5604A04460B4611D112780B2AA5
:1028100004D8C2F10C0201FA02F304E00C2A1CBF36
:102820000C3A41FA02F31846BDE8384001F004B909
:1028300011780125002B05FA01F2D8BF002102DD35
:10284000934205D32946FFF739FF2046294697E0F2
:102850000338C2B2012A01D84C4A06E0202C01D02C
:10286000192C01D14A4A00E04A4A126802FB03329D
:10287000CA401D287BD8DFE800F0575F4E337A7AD4
:10288000212A7A7A7A7A7A7A7A7A7A3C450F187A91
:10289000707A7A7A7A7A7A673F4B1A6003F59733BF
:1028A00040F2444203F5FA735FE03C4B1A6003F5D3
:1028B000973340F2444203F5F87356E0384B1A6000
:1028C00003F5973340F2444203F5F6734DE0354B80
:1028D0001A6003F5973340F2444203F5F47344E081
:1028E000314B1A6003F59F3340F2444203F5F07315
:1028F0003BE02E4B1A6003F59F3340F2444203F550
:10290000EE7332E02A4B1A6003F59F3340F24442E3
:1029100003F5EC7329E0274B1A6003F59F3340F26F
:10292000444203F5EA7320E0234B1A6003F5803339
:102930004FF45172203318E0204B1A6003F58033B6
:102940004FF451721C3310E01D4B1A60A3F5DB23CA
:102950004FF45172A3F5F96307E01A4B1A60A3F51F
:10296000DB234FF45172A3F2CC731A6038BD7F2B76
:102970002046D4BF00210121FFF7A0FE20460121FF
:10298000BDE83840FFF7BABE3C89FF1F08900340FE
:1029900008800B40088003401080034018800340EB
:1029A000208003402880034030800340388003406B
:1029B000408003404880034010900340189003403B
:1029C00010800B4018800B4072B60C4B0C491A68F3
:1029D0000C4B1B68096862B6490102D5322A88BFD0
:1029E0000133C2F58C32482102F23F12B2FBF1F200
:1029F0004FF47A7000FB0320704700BF18E000E03E
:102A000004ED00E01496FF1F38B50446FFF7DCFF25
:102A1000054624B938BD013C0AD005F57A75FFF7A3
:102A2000D3FF401BB0F57A7FF5D200F0EBFDF6E75F
:102A300038BDFFFF204B4FF4000210B51A604FF075
:102A400080721A604FF000721A604FF080621A6054
:102A50004FF000621A60194B194A1A4C002048F6D0
:102A6000FF711860596028231360936013619361AC
:102A700013629362136393630922226004F5805406
:102A8000043420606160A360236144F8042C04F5E1
:102A9000FE2420600C4801600C490B608B600C4BDD
:102AA0001A6000F06DFF4FF4C870FFF7ADFFBDE88E
:102AB000104000F0D7BB00BF08E100E004800340F5
:102AC0000C8003400080034008800B400C800B40CA
:102AD00000800B40F0B50C4B0C4C1A7842F002050C
:102AE00004EBC50682F00102706009481A7006788E
:102AF000002E0CBF8827C82786F0010647EA01414F
:102B0000067044F83510F0BD8096FF1F0080FF1F4F
:102B1000F896FF1F431E032B10B510D872B6094A52
:102B200052F8230048B1416842F82310064A018850
:102B300032F81340611A22F8131062B610BD00205B
:102B400010BD00BF7096FF1FD099FF1F01380328EA
:102B50000AD872B6054B53F82030002013B101306B
:102B60005B68FBE762B6704700207047C496FF1FA2
:102B700010B572B60123174A1A4412F8012C120735
:102B80001CD59900144A52F831402CB902EB43137A
:102B900008305860114B09E041F0010152F8314012
:102BA00064B902EBC103083058600D4B42F8313074
:102BB0000C4B1A78013A1A7062B610BD0133052B1E
:102BC000D9D162B6074B00221A70BDE8104000F060
:102BD000C7BB00BF288A00000080FF1F880040009C
:102BE000C8004000EE96FF1F431E032B30B532D8BD
:102BF000194A400140F01000104472B6174CE25CD4
:102C0000032A09D8DFE802F016021805083002226C
:102C100013E00830042210E01148124A50F8234013
:102C200014B940F8231002E052F82300416042F842
:102C300023100FE0032200E00522E25410F0080FF9
:102C400001F108030A8843600CBF8823C82343EAC4
:102C50000243036062B630BD0080FF1F2C96FF1F49
:102C6000C496FF1FD496FF1F2DE9F84FAB4F3C7859
:102C7000E4B214F0040F3D4619D0A94B1B78A3B160
:102C8000A84A117801F0FF0321B1013BDBB21370B8
:102C900003B900BEA44A117801F0FF0329B1013B3A
:102CA000DBB213700BB900F089FC04233B7004F015
:102CB000080303F0FF02002B00F067829B4B9C4C43
:102CC0001A78D2B215094FEA920840F0E48104EB79
:102CD000C803596854F83830C3F38303013B0C2B05
:102CE00000F2D681DFE813F095019501D401D401FB
:102CF000D401D401D401D401B001D401D401D40150
:102D00000D008C4D0A684B688B486B6001218B4B22
:102D100044F838302A60DFF85082017092B240F2F5
:102D2000816000238242C8F800302361A36117D874
:102D3000B2F5D06F80F01E81B2F5817F00F0CF80B8
:102D400006D8802A00F0BA80822A00F0BB8031E1E8
:102D500040F202339A4200F0D180B2F5A06F1CE03D
:102D600042F22100824200F051810ED8B2F5086F84
:102D700000F09E80B2F5106F40F01C81684B6C4EE5
:102D8000AA781A7006F180090AE042F221218A42EB
:102D900000F0088142F221339A4200F00F8109E1EC
:102DA000336A1B0603D5706A083800F0D9FA083672
:102DB0004E45F5D10026B146DFF8B0A156F80A001D
:102DC00028B1D0F804B000F0CBFA5846F8E74AF83A
:102DD00006005B4BDFF898A1F05056F80A0028B1C6
:102DE000D0F804B000F0BCFA5846F8E7554B4AF862
:102DF0000600F050544B23F81900544B19F80320E7
:102E0000023A032A08D8DFE802F002040204002292
:102E100000E0012203F8092009F10109B9F1040FCA
:102E200006F10406C8D14A4B00221A7001269A46C0
:102E3000484A494B3244334412F8012C9B0012F0AB
:102E4000080F1A704FEA860925D000F06BFA38B1E6
:102E500004EB461308305860404B44F8393006E024
:102E60009AF8003044F8390001338AF8003000F055
:102E700059FA49F0010338B104EBC302083050603D
:102E80002E4A44F8332006E044F833009AF8003024
:102E900001338AF8003049F00202013649F0030993
:102EA0000023052E44F8323044F83930C0D186E092
:102EB0001B4B2B4C1B7823700B4683E0284C237054
:102EC00063707EE0AA88042A74D8254C920023708F
:102ED0006370244B9B5C9E0773D5217071E0AA88B8
:102EE00002F07F02042A65DC6B88002B62D191001E
:102EF0001C4A0A44117821F0020159E0AA8802F024
:102F00007F02042A56DC6B88002B53D19100154AAE
:102F10000A44117841F002014AE000BF80200740D6
:102F2000F796FF1F8196FF1F0C97FF1F9020074009
:102F30000080FF1FE496FF1FF896FF1FC8004000A7
:102F40001C96FF1FD496FF1FD099FF1F2C96FF1FC2
:102F5000EE96FF1F288A000030C80110880040004C
:102F6000EF96FF1FC02007401896FF1F7096FF1FA7
:102F7000C496FF1F6A88A9889F4B53F8084CA3F199
:102F80000C00BCB133F80C6C964209D133F80A6CD2
:102F90008E4205D1120A032A0CBF2378038911E05F
:102FA0000C33EAE7954A1168954A1160A978954A69
:102FB000117004E0944B0F221A7027E000231C4686
:102FC00000E00223EE88B34238BF1E46402E34BFD5
:102FD0003546402520462946FFF77CFD761B2C44CC
:102FE00003D1402D12D1354603E0402E34BF354683
:102FF000402520462946FFF76DFD761B2C4401D164
:10300000402D03D1814AC8F8004016800122804B30
:103010003DE0804B1A8842F221039A4210D10023EE
:103020007D4AC85C98540133072BF9D11368862B6D
:1030300002D17A4B0F221A7000200146FFF74AFD99
:10304000774B44F8383023E0764E3568B5B1DFF879
:10305000BC81B8F80090B9F1400F34BF4C46402411
:1030600028462146FFF736FDC4EB09039BB2A8F8BA
:1030700000300BB9402C00D12B193360654B1A88F6
:10308000B2F5A06F04D100225A709A78664B1A707C
:1030900001225F4B6CE004EBC806013D736802F04F
:1030A0000802A3F10800EDB202F0FF01002A36D0B9
:1030B00000F056F95D485E4B50F82520EAB15168A2
:1030C00040F8251002F108017160595D03290BD801
:1030D000DFE801F002040608032104E0022102E017
:1030E000052100E00421595516F0080F12880CBF85
:1030F0008823C82343EA024342E05A5D032A07D8E3
:10310000DFE802F040400204002206E0012204E071
:1031100016F0080F0CBF022203225A5532E054F871
:103120003820120C23F8082C22B3DFF834E123F8FE
:10313000061C43F8041C5EF825303E4913B94EF8CE
:10314000250002E051F8253058603B4B41F825003E
:1031500033F815100A4423F8152000F0E3F810B1F5
:103160000830706006E0354B44F838001A780132B8
:103170001A7007E02A4B324A16F0080F08BF1346B0
:1031800044F8383008233B7070E5E0071FD520492C
:103190002B482C4C02230B702B4B1A702B4B1860B6
:1031A00098602B48D8601A619A615C60164B0D20BC
:1031B00018702848FF2303702B700274264A13707E
:1031C000264B9F221A7001230B70BDE8F88F210651
:1031D00004D50D4B0D221A7080232B70A20705D544
:1031E0001C4B1A78D2B21A7002232B70E30644BF2C
:1031F00010232B70BDE8F88F388A00001496FF1F4B
:10320000E099FF1F1C97FF1FC0200740EC96FF1F8F
:1032100094200740E496FF1FD899FF1F8196FF1F57
:10322000C80040001896FF1F98200740C496FF1F53
:103230002C96FF1F1C96FF1FD099FF1FEE96FF1FB5
:10324000880040003096FF1F8096FF1F0080FF1F00
:103250008496FF1F882007408C2007408420074069
:103260007096FF1F08B501F003FD00221A4B0021E4
:10327000D15098180832882A4160F7D1174A10684F
:1032800040F48020106002F528326832C3F3072032
:103290001070C3F307401B0E10751376FF2302F85E
:1032A0001C3C02F8143C02F88C3C012302F8083C58
:1032B00082F8641002F8183C094B70226FF45071C8
:1032C0001A700B444FF400721A6003F1C04303F507
:1032D000C82310221A7008BD0080FF1F34800440EC
:1032E00049E400E000F0A0B800F05CB800F080B85D
:1032F00000F036B900F0A6B8084600F025B9084637
:10330000114600F0B7B87047044B00221A714FF411
:103310007A711A73024A99601A607047FC96FF1F0F
:10332000E888000072B60C4A1168B1FA81F30B2BE1
:1033300002D962B6002070474FF00040D84021EA21
:103340000001116062B6054948225343C8180022A3
:10335000CA504260704700BF4089FF1F0084FF1FB2
:103360000C4B4822C31AB3FBF2F30B2B11D80A4AB9
:10337000127822B1094A12780AB1FFF7F9BB72B686
:10338000074A4FF0004121FA03F311681943116015
:1033900062B670470084FF1FEE96FF1FF796FF1F6F
:1033A0004089FF1F10B5104C23686BB1206842881C
:1033B000531C0244147A0288934212D3FFF7D0FFC1
:1033C000094B00221A600DE0084B1B7813B94FF02F
:1033D000FF3010BD0320FFF79DFB20600028E5D1E2
:1033E000F5E74380204610BD1897FF1FF796FF1F93
:1033F00010B50B4C236813B123686BB902E0094B7D
:103400001B7813B94FF0FF3010BD0320FFF782FB8C
:1034100020600028F0D1F5E75A881344187A10BDCF
:103420001897FF1FF796FF1F044B9888044B1B68E3
:103430001BB11A885B88D31A18447047D099FF1FB4
:103440001897FF1F10B5094B1B786BB1084C20680B
:1034500018B1FFF785FF002323600320FFF75AFB15
:1034600010B1FFF77DFFF8E710BD00BFF796FF1F13
:103470001897FF1F2DE9F0472E4E01230746894676
:1034800033700C46002C50D02B4D2B68AA462BBB1A
:1034900048F60148294B1B7803F0FF020BB9327044
:1034A00015E00420FFF752FB072808D801233370EA
:1034B000FFF738FFCAF8000080B91E4B1870B8F14A
:1034C00001081F4B01D01A782AB101221A704FF05F
:1034D000FF30BDE8F08700F095F8DBE7184B0022DD
:1034E0001A702B685888C0F140018C4238BF2146C1
:1034F00000F1080C08449C445880641A8A4204D0A5
:10350000B85C0CF802000132F8E717445A883F2AE9
:1035100007D940221A8019460420FFF765FB0023D3
:103520002B60084B05221A70ACE734704846BDE8A2
:10353000F08700BF0D97FF1F1097FF1FF796FF1F23
:103540001497FF1F0C97FF1F07B502AB012103F86B
:10355000010D1846FFF78EFF03B05DF804FBFFFF77
:103560002DE9F041114B1B78F3B1114E114B34682A
:10357000114D01271F7098464CB1002763882F70AA
:10358000042023802146FFF72FFB376009E0FFF777
:10359000C9FE014620B104202C70FFF725FB00E096
:1035A0002F70002388F80030BDE8F081F796FF1FE8
:1035B0001097FF1F0D97FF1F0C97FF1F38B50E4B7D
:1035C0001B7803F0FF05ABB90C4C216831B14B8877
:1035D0000B800420FFF708FB256038BDFFF7A2FE33
:1035E000014620B10420BDE83840FFF7FDBA044B86
:1035F00001221A7038BD00BF0D97FF1F1097FF1FE3
:103600000C97FF1F10B50E4C2378BBB90123237014
:10361000FFF70AFF08B1FFF776FE00F06DFC08B176
:1036200000F08AF800F0C6FF08B100F00FF901F0D1
:1036300053FA08B100F094F90023237010BD00BFC5
:103640001D97FF1F08B50368C9B21B68984708BDDE
:1036500008B50368C9B21B68984708BD08B5036878
:10366000C9B21B68984708BD08B50368C9B21B6892
:10367000984708BD034800EB5100B0FBF1F000F0A3
:10368000F5B900BF0044950810B5064800EB51009D
:103690001446B0FBF1F000F0E9F92046BDE8104017
:1036A00000F048BA0044950800F06EBA084600F0F1
:1036B0009FBA084600F0EEBA0846114600F0B4BAC8
:1036C00008B5084600F00CFB003018BF012008BD0B
:1036D00008B5084600F026FB003018BF012008BDE1
:1036E00000F00ABC00F042BC00F016BC00F0E8BBE1
:1036F00000F054BC00F0EEBB08B5084600F038FB03
:10370000012008BD08B5084600F032FB012008BDC5
:1037100010B508461446114600F074FB204610BD53
:1037200038B508460D4603F07BF904462146284685
:1037300000F068FB204638BD7047FFFF044B0022B5
:103740001A714FF47A711A73024A99601A607047BD
:103750002097FF1F1089000008B50368C9B21B68D5
:10376000984708BD08B50368C9B21B68984708BDEB
:1037700008B50368C9B21B68984708BD08B5036857
:10378000C9B21B68984708BD034800EB5100B0FB65
:10379000F1F000F0ABBC00BF0044950810B506483E
:1037A00000EB51001446B0FBF1F000F09FFC204606
:1037B000BDE8104000F0FEBC0044950800F024BDB8
:1037C000084600F079BD084600F0C8BD084611461D
:1037D00000F08EBD08B5084600F0E8FD003018BFC7
:1037E000012008BD08B5084600F002FE003018BFF1
:1037F000012008BD00F0DEBE00F016BF00F0EABEFA
:1038000000F0BCBE00F028BF00F0C2BE08B50846FC
:1038100000F00CFE012008BD08B5084600F006FEC9
:10382000012008BD10B508461446114600F048FEB8
:10383000204610BD38B508460D4603F0F1F80446A1
:103840002146284600F03CFE204638BD7047FFFF69
:10385000044B00221A714FF47A711A73024A99606C
:103860001A6070473097FF1F7089000008B5036821
:10387000C9B21B68984708BD08B50368C9B21B6880
:10388000984708BD08B50368C9B21B68984708BDCA
:1038900008B50368C9B21B68984708BD034800EB28
:1038A0005100B0FBF1F000F07FBF00BF00A24A045E
:1038B00010B5064800EB51001446B0FBF1F000F0E3
:1038C00073FF2046BDE8104000F0B0BF00A24A04DC
:1038D00000F0D6BF084601F007B8084601F048B826
:1038E0000846114601F01CB808B5084601F042F838
:1038F000003018BF012008BD08B5084601F05CF88B
:10390000003018BF012008BD01F0E6B801F01EB973
:1039100001F0F2B801F0C4B801F030B901F0CAB852
:1039200008B5084601F066F8012008BD08B508464C
:1039300001F060F8012008BD10B508461446114694
:1039400001F0A2F8204610BD38B508460D4603F038
:1039500067F804462146284601F096F8204638BD0F
:103960007047FFFF044B00221A714FF47A711A73EB
:10397000024A99601A6070474097FF1FD089000083
:1039800010B5204B2048214960221A70E1225A705C
:103990001F4B204A1C78204B082C01D1012402E047
:1039A0000A2C03D119240460132005E00C2C0CBF51
:1039B00015243D2404601220086014601860174B21
:1039C00017491B78174A03B101230B601360164B8C
:1039D000164A1978164B012901D880210BE00429D9
:1039E00001D8842107E0082901D8852103E01029A6
:1039F00094BF86218721116019600E4B01221A7035
:103A000010BD00BF0040074008B003400CB00340A9
:103A10004489FF1F08B00B400CB00B405197FF1FAB
:103A200020B0034020B00B404589FF1F24B0034065
:103A300024B00B405097FF1F084B1A6842F4805285
:103A40001A60074B1A78074B0AB1802200E0C022A7
:103A50001A70054B80F30C00188070472C800440CE
:103A60005197FF1F21C00C4000C00C40234B1A6827
:103A700042F480621A60224A00231370214A1370B4
:103A8000214A1370214A1370214A1370214B1B786D
:103A90002BB1152B07D140F213321F4B02E01F4B05
:103AA00040F213321A601E4B1B78012B05D0052BF8
:103AB00007D14FF451721B4B02E01B4B4FF4517274
:103AC0001A601A4BC0F344321A70C0F347125A708E
:103AD0000221042200F01F0098729A70D9745A755E
:103AE00088221A743C22DA70114B40226FF44A711A
:103AF0001A700B444FF400521A607047348004402F
:103B0000DB97FF1F5997FF1FE497FF1FDC97FF1FED
:103B10005897FF1F9A97FF1F18C0044040A0044009
:103B20004689FF1F1CC0044044A0044000A006407A
:103B30002DE400E0134A937800F0030103F0EC0356
:103B40000B43410748BF43F01003937000F00F038D
:103B5000042B0C4903D18B7943F040038B715379CB
:103B6000C20603F0EF03074A48BF43F01003537146
:103B70009379810603F0EF0348BF43F0100393717C
:103B8000704700BF00A0064008B5114B1B685B05DD
:103B900000D408BD0F4B1A7802F0FF0312B1FFF7F3
:103BA00031FDF7E70C4A4FF4005111600B4A0C4904
:103BB000D37040F203120A604A600A4A13700A4A3C
:103BC00013700A4B1B680BB101221A7008BD00BFAD
:103BD000348004405897FF1F84E100E000A00640B5
:103BE00040A00440DB97FF1F5997FF1F5497FF1F0A
:103BF00038B50446094B1B7803F0FF05002BF9D1BB
:103C000020460121FEF77AFD20462946FEF756FDA3
:103C1000034B53F83420034B1A6038BD5897FF1FED
:103C2000D0870000E097FF1F10B509B140F0800079
:103C3000144A13789842144622D0134A1268520547
:103C40001DD503F07F03012B04D0052B05D10022E5
:103C50000E4B01E00E4B00221A60002900F07F029B
:103C60000CBF44236023012A05D0052A07D143F461
:103C70004073064A02E0064A43F440731360207022
:103C800010BD00BF4689FF1F348004401CC00440A3
:103C900044A004400E4A1378984218D00D49096890
:103CA000490513D52BB1152B05D10B4B00211960FC
:103CB00001E00A490B6028B1152807D140F2133101
:103CC000054B02E0054B40F213311960107070474C
:103CD0009A97FF1F3480044018C0044040A004405D
:103CE0000D4A38B5146814F480624FF0000410D007
:103CF00021280A4D0AD80A4A012152F830302B6097
:103D0000FEF7FCFC2B681C70012038BD2C6020469F
:103D100038BD104638BD00BF348004405497FF1FA3
:103D2000D08700000E4B1B6813F4806316D0122856
:103D30000C4B03D140F202310B4A04E0142809D1A4
:103D40000A4A40F2023111605A7B42F001025A7372
:103D5000012070475A7B02F0FE025A730020704720
:103D60003480044000A006400CA0044014C004406D
:103D7000F8B51D4B1B685A05064633D51B4B1B680F
:103D80000BB101221A701A4B1C780134402C1F46CB
:103D900028BF0024174D2B78A34218D1FEF7ECFA68
:103DA00040280FDC144A13791B06F3D52B781349EE
:103DB0000133402B28BF0023C95CDBB2C9B2D171EB
:103DC0002B70E7E7FF28E5DDFFF71CFCE2E70B4B74
:103DD000F6B21E550A4B01221A70074BE4B2BC2200
:103DE0003C70DA70F8BD00BF34800440E097FF1FDC
:103DF000E497FF1FDC97FF1F00A006405A97FF1FA4
:103E00005897FF1F274B1B685A052DE9F0470746B7
:103E10008A4644D5244B1B680BB101221A703D46DB
:103E200007EB0A039D4237D2DFF890801F4E98F8C7
:103E3000004096F800900134402C28BF00245FFA1F
:103E400089F9A1451DD11A4BBC22DA70FEF794FA0C
:103E500040280FDC164A13791B060FD53378154915
:103E60000133402B28BF0023C95CDBB2C9B2D1713A
:103E7000337003E0FF2801DDFFF7C4FB33784B45C7
:103E8000E4D00C4B15F8012B1A550B4B0122E4B270
:103E90001A7088F80040C3E7054BBC22DA70BDE811
:103EA000F08700BF34800440E097FF1FDC97FF1FBE
:103EB00000A006405A97FF1F5897FF1FE497FF1F67
:103EC00008B5034B1B7813B1FFF79CFBF9E708BD5E
:103ED0005897FF1F064A074B1B781078DBB2C0B219
:103EE00083422CBF3F3000F1FF30C01A704700BF43
:103EF000DC97FF1FE497FF1F054B1878054B1B78D5
:103F0000C0B2DBB2984238BF4030C01A704700BF21
:103F1000DB97FF1F5997FF1F10B5104B10491A78F8
:103F20000B78D2B2DBB29A4214D00133402B28BFB7
:103F300000230C48DCB2C05C0C700B490968C0B2AD
:103F400051B19A4238BF4032D31A1A2B04DC0023F5
:103F50000B7010BD4FF0FF3010BD00BFDB97FF1F8F
:103F60005997FF1F9B97FF1F5497FF1F084B1A7805
:103F7000084B1B78DBB29A4207D00133402B28BF95
:103F80000023054AD05CC0B270474FF0FF30704745
:103F9000DB97FF1F5997FF1F9B97FF1F0C4B1B6859
:103FA0005B0514D50B4BDA7802F0CB02DA704022B5
:103FB0005A74DA7842F03402DA70074B1A78074BF9
:103FC000D2B21A70064B1B680BB100221A707047F0
:103FD0003480044000A006405997FF1FDB97FF1F65
:103FE0005497FF1F30B5374B1A7912F0300F31D08C
:103FF00072B69A7D02F0FF0022B9DA7940225A7433
:1040000062B627E062B6304A304913780978DBB2ED
:10401000C9B214462B4AD5795A1C402A28BF00221F
:104020008A42EDB202D02A4B9D541346421E12F032
:10403000FF00EFD1DAB22270264A126852B18B42E9
:1040400036BFC1F14001C1EB03035B18272BC4BF8E
:10405000012313701B4BD978C9B20C0620D51B79EC
:1040600018061DD51C4B1D4A1D781378EDB2DBB226
:104070001046AB420CD0134A0133402B1479184C34
:1040800028BF0023E45CE4B2D471127D072AF0D982
:10409000DBB203700B4B1A79120644BF7C22DA7034
:1040A0004B060ED5074B1A7912F0400F194608D06F
:1040B0000C4B00221A700C4B1B6803B11A703C2386
:1040C000CB7030BD00A00640DB97FF1F5997FF1F44
:1040D0009B97FF1F5497FF1FE497FF1FDC97FF1F5D
:1040E0005A97FF1F5897FF1FE097FF1F234B1A682F
:1040F00042F400621A60224A00231370214A1370AE
:10410000214A1370214A1370214A1370214B1B78E6
:10411000092B05D01A2B07D140F213321E4B02E0B7
:104120001E4B40F213321A601D4B1B780A2B05D030
:104130001F2B07D14FF451721A4B02E01A4B4FF468
:1041400051721A60194BC0F344321A70C0F347120F
:104150005A7000F01F000422022198729A70D974DC
:104160005A7588221A743C22DA70114B40221A7058
:10417000A3F22B334FF400421A607047348004409E
:104180005698FF1FED97FF1F5C98FF1F5798FF1F62
:10419000EC97FF1F4789FF1F04D004400CB0044078
:1041A0004889FF1F00D0044010B0044000B0064012
:1041B0002FE400E0134A937800F0030103F0EC03CE
:1041C0000B43410748BF43F01003937000F00F0307
:1041D000042B0C4903D18B7943F040038B71537945
:1041E000C20603F0EF03074A48BF43F010035371C0
:1041F0009379810603F0EF0348BF43F010039371F6
:10420000704700BF00B0064008B51E4B1B681B0579
:1042100000D408BD1C4B1B7803F0FF0213B1FFF75D
:10422000F1F9F7E7194B4FF400411960184BDA70B8
:10423000184B1B78092B05D01A2B07D140F203121B
:10424000154B02E0154B40F203121A60144B1B7819
:1042500003F07F030A2B05D01F2B07D140F2031276
:10426000104B02E0104B40F203121A600F4A002379
:1042700013700F4A13700F4B1B680BB101221A7099
:1042800008BD00BF34800440EC97FF1F84E100E0CC
:1042900000B006404789FF1F04D004400CB0044022
:1042A0004889FF1F00D0044010B004405698FF1FFB
:1042B000ED97FF1FE897FF1F38B50446094B1B78A1
:1042C00003F0FF05002BF9D120460121FEF716FA75
:1042D00020462946FEF7F2F9034B53F83420034BEE
:1042E0001A6038BDEC97FF1FD08700005898FF1F59
:1042F00010B509B140F08000144A13789842144672
:1043000022D0134A126812051DD503F07F030A2B31
:1043100004D01F2B05D100220E4B01E00E4B0022D2
:104320001A60002900F07F020CBF442360230A2A90
:1043300005D01F2A07D143F44073064A02E0064A1B
:1043400043F440731360207010BD00BF4889FF1F05
:104350003480044000D0044010B004400F4A137869
:1043600098421AD00E490968090515D5092B04D0C1
:104370001A2B05D100210B4B01E00B4B00211960DA
:10438000092805D01A2807D140F21331054B02E065
:10439000054B40F213311960107070474789FF1FB9
:1043A0003480044004D004400CB004400D4A38B5B9
:1043B000146814F400624FF0000410D021280A4D54
:1043C0000AD80A4A012152F830302B60FEF796F9DC
:1043D0002B681C70012038BD2C60204638BD10466B
:1043E00038BD00BF34800440E897FF1FD08700002D
:1043F0000B4B1B6813F4006310D01728094B09D12D
:10440000094A40F2023111605A7B42F001025A73AC
:10441000012070475A7B02F0FE025A730020704759
:104420003480044000B0064008B00440F8B51D4B8D
:104430001B681A05064633D51B4B1B680BB10122BE
:104440001A701A4B1C780134282C1F4628BF0024F0
:10445000174D2B78A34218D1FDF78EFF40280FDCB3
:10446000144A13791B06F3D52B7813490133282BF3
:1044700028BF0023C95CDBB2C9B2D1712B70E7E75A
:10448000FF28E5DDFFF7BEF8E2E70B4BF6B21E555D
:104490000A4B01221A70074BE4B2BC223C70DA705E
:1044A000F8BD00BF348004405898FF1F5C98FF1F80
:1044B0005798FF1F00B00640EE97FF1FEC97FF1FB5
:1044C000274B1B681A052DE9F04707468A4644D555
:1044D000244B1B680BB101221A703D4607EB0A03FF
:1044E0009D4237D2DFF890801F4E98F8004096F832
:1044F00000900134282C28BF00245FFA89F9A145D7
:104500001DD11A4BBC22DA70FDF736FF40280FDCB4
:10451000164A13791B060FD5337815490133282B1A
:1045200028BF0023C95CDBB2C9B2D171337003E08C
:10453000FF2801DDFFF766F833784B45E4D00C4BDC
:1045400015F8012B1A550B4B0122E4B21A7088F8AA
:104550000040C3E7054BBC22DA70BDE8F08700BF1E
:10456000348004405898FF1F5798FF1F00B0064042
:10457000EE97FF1FEC97FF1F5C98FF1F08B5034BDA
:104580001B7813B1FFF73EF8F9E708BDEC97FF1F62
:10459000064A074B1B781078DBB2C0B283422CBFAF
:1045A000273000F1FF30C01A704700BF5798FF1F37
:1045B0005C98FF1F054B1878054B1B78C0B2DBB227
:1045C000984238BF4030C01A704700BF5698FF1F4E
:1045D000ED97FF1F10B5104B10491A780B78D2B227
:1045E000DBB29A4214D00133402B28BF00230C4881
:1045F000DCB2C05C0C700B490968C0B251B19A4280
:1046000038BF4032D31A1A2B04DC00230B7010BDC4
:104610004FF0FF3010BD00BF5698FF1FED97FF1FF2
:104620001698FF1FE897FF1F084B1A78084B1B7856
:10463000DBB29A4207D00133402B28BF0023054A42
:10464000D05CC0B270474FF0FF3070475698FF1FE4
:10465000ED97FF1F1698FF1F0C4B1B681B0514D509
:104660000B4BDA7802F0CB02DA7040225A74DA7817
:1046700042F03402DA70074B1A78074BD2B21A7044
:10468000064B1B680BB100221A707047348004403F
:1046900000B00640ED97FF1F5698FF1FE897FF1FD9
:1046A00030B5374B1A7912F0300F31D072B69A7D8F
:1046B00002F0FF0022B9DA7940225A7462B627E08C
:1046C00062B6304A304913780978DBB2C9B2144671
:1046D0002B4AD5795A1C402A28BF00228A42EDB2C3
:1046E00002D02A4B9D541346421E12F0FF00EFD118
:1046F000DAB22270264A126852B18B4236BFC1F13B
:104700004001C1EB03035B18272BC4BF01231370C7
:104710001B4BD978C9B20C0620D51B7918061DD5BC
:104720001C4B1D4A1D781378EDB2DBB21046AB422C
:104730000CD0134A0133282B1479184C28BF0023BE
:10474000E45CE4B2D471127D072AF0D9DBB20370C5
:104750000B4B1A79120644BF7C22DA704B060ED539
:10476000074B1A7912F0400F194608D00C4B002263
:104770001A700C4B1B6803B11A703C23CB7030BD10
:1047800000B006405698FF1FED97FF1F1698FF1FB9
:10479000E897FF1F5C98FF1F5798FF1FEE97FF1FBA
:1047A000EC97FF1F5898FF1F174B1A6842F480526E
:1047B0001A60164A00231370154A1370154A1370B5
:1047C000154A1370154A1370154A40F213311160DF
:1047D0004FF451715160134AC0F344311170C0F36A
:1047E000471100F01F0051709072937013742C23C6
:1047F000D3700D4B40226FF44B711A700B444FF481
:1048000000321A60704700BF34800440CE98FF1F0A
:104810006598FF1FD498FF1FCF98FF1F6498FF1F54
:1048200008C0044000C0064031E400E0134A937819
:1048300000F0030103F0EC030B43410748BF43F0D2
:104840001003937000F00F03042B0C4903D18B79F4
:1048500043F040038B715379C20603F0EF03074A1C
:1048600048BF43F0100353719379810603F0EF03BF
:1048700048BF43F010039371704700BF00C006406B
:1048800008B5114B1B68DB0400D408BD0F4B1A7828
:1048900002F0FF0312B1FEF7B5FEF7E70C4A4FF442
:1048A000003111600B4A0C49D37040F203120A60C8
:1048B0004A600A4A13700A4A13700A4B1B680BB10C
:1048C00001221A7008BD00BF348004406498FF1FA5
:1048D00084E100E000C0064008C00440CE98FF1FFD
:1048E0006598FF1F6098FF1F38B50446094B1B7879
:1048F00003F0FF05002BF9D120460121FDF7FEFE54
:1049000020462946FDF7DAFE034B53F83420034BCB
:104910001A6038BD6498FF1FD0870000D098FF1F31
:1049200010B509B140F080000E4A1378984217D0B4
:104930000D4C2468E40412D503F07F03082B02D148
:104940000A4B00241C60002900F07F030CBF4421A7
:104950006021082B03D1054B41F4407119601070A0
:1049600010BD00BF4989FF1F348004400CC00440C3
:104970007047FFFF0D4A38B5146814F480524FF0A9
:10498000000410D021280A4D0AD80A4A012152F801
:1049900030302B60FDF7B2FE2B681C70012038BD53
:1049A0002C60204638BD104638BD00BF348004401E
:1049B0006098FF1FD08700000B4B1B6813F48053D7
:1049C00010D00E28094B09D1094A40F2023111607A
:1049D0005A7B42F001025A73012070475A7B02F061
:1049E000FE025A73002070473480044000C0064025
:1049F00004C00440F8B51D4B1B68DA04064633D5E5
:104A00001B4B1B680BB101221A701A4B1C78013426
:104A1000282C1F4628BF0024174D2B78A34218D1FD
:104A2000FDF7AAFC40280FDC144A13791B06F3D5C6
:104A30002B7813490133282B28BF0023C95CDBB234
:104A4000C9B2D1712B70E7E7FF28E5DDFEF7DAFD8B
:104A5000E2E70B4BF6B21E550A4B01221A70074BC8
:104A6000E4B2AC223C70DA70F8BD00BF3480044080
:104A7000D098FF1FD498FF1FCF98FF1F00C006409B
:104A80006698FF1F6498FF1F38B504464518AC426E
:104A900004D014F8010BFFF7ADFFF8E738BDFFFFB6
:104AA00008B5034B1B7813B1FEF7ACFDF9E708BD61
:104AB0006498FF1F064A074B1B781078DBB2C0B220
:104AC00083422CBF273000F1FF30C01A704700BF6F
:104AD000CF98FF1FD498FF1F054B1878054B1B7804
:104AE000C0B2DBB2984238BF4030C01A704700BF36
:104AF000CE98FF1F6598FF1F10B5104B10491A780C
:104B00000B78D2B2DBB29A4214D00133402B28BFCB
:104B100000230C48DCB2C05C0C700B490968C0B2C1
:104B200051B19A4238BF4032D31A1A2B04DC002309
:104B30000B7010BD4FF0FF3010BD00BFCE98FF1FAF
:104B40006598FF1F8E98FF1F6098FF1F084B1A780B
:104B5000084B1B78DBB29A4207D00133402B28BFA9
:104B60000023054AD05CC0B270474FF0FF30704759
:104B7000CE98FF1F6598FF1F8E98FF1F054B1A7870
:104B8000054BD2B21A70054B1B680BB100221A708C
:104B9000704700BF6598FF1FCE98FF1F6098FF1FEA
:104BA00010B5294B1A79920620D5284AD87913785E
:104BB00027490133402B097828BF00238B42C0B21C
:104BC00003D02449C854D9B21170234A116869B17D
:104BD000224A1278D2B2934236BFC2F14002C2EBEF
:104BE00003039B18272BC4BF01230B70164AD178EF
:104BF000C9B20C0616D51379180613D5184B1748E9
:104C00001C780378DBB29C4202D16C23D37009E09C
:104C10000133282B28BF0023124CE45CDBB2E4B242
:104C2000D47103704B060ED5074B1A7912F0400F62
:104C3000194608D00C4B00221A700C4B1B6803B1AC
:104C40001A702C23CB7010BD00C00640CE98FF1FF9
:104C50006598FF1F8E98FF1F6098FF1FCF98FF1F5A
:104C6000D498FF1F6698FF1F6498FF1FD098FF1FFE
:104C70001FB572B6154B70221A70154A412111707A
:104C80000F2102F8011C80221A701A781206FCD536
:104C9000104B186862B6104B984298BF0A2301ACBB
:104CA00098BF584321460A22FDF784FB0023E15CAC
:104CB0000A4A29B102EB430001330A2B4180F6D1A5
:104CC00001335B00137004B010BD00BF0000024050
:104CD00007000240080002407F969800D289FF1F1B
:104CE00081F0004102E000BF83F0004330B54FEA9D
:104CF00041044FEA430594EA050F08BF90EA020F0A
:104D00001FBF54EA000C55EA020C7FEA645C7FEA9C
:104D1000655C00F0E2804FEA5454D4EB5555B8BFBF
:104D20006D420CDD2C4480EA020281EA030382EA30
:104D3000000083EA010180EA020281EA0303362DC2
:104D400088BF30BD11F0004F4FEA01314FF4801C95
:104D50004CEA113102D0404261EB410113F0004FA7
:104D60004FEA03334CEA133302D0524263EB43035E
:104D700094EA050F00F0A780A4F10104D5F1200EFC
:104D80000DDB02FA0EFC22FA05F2801841F1000157
:104D900003FA0EF2801843FA05F359410EE0A5F12B
:104DA00020050EF1200E012A03FA0EFC28BF4CF05C
:104DB000020C43FA05F3C01851EBE37101F0004512
:104DC00007D54FF0000EDCF1000C7EEB00006EEB1F
:104DD0000101B1F5801F1BD3B1F5001F0CD34908A9
:104DE0005FEA30004FEA3C0C04F101044FEA445200
:104DF00012F5800F80F09A80BCF1004F08BF5FEA87
:104E0000500C50F1000041EB045141EA050130BD66
:104E10005FEA4C0C404141EB010111F4801FA4F109
:104E20000104E9D191F0000F04BF01460020B1FA5E
:104E300081F308BF2033A3F10B03B3F120020CDA96
:104E40000C3208DD02F1140CC2F10C0201FA0CF074
:104E500021FA02F10CE002F11402D8BFC2F1200CD9
:104E600001FA02F120FA0CFCDCBF41EA0C0190408F
:104E7000E41AA2BF01EB0451294330BD6FEA0404D8
:104E80001F3C1CDA0C340EDC04F11404C4F12002C3
:104E900020FA04F001FA02F340EA030021FA04F3D5
:104EA00045EA030130BDC4F10C04C4F1200220FA2C
:104EB00002F001FA04F340EA0300294630BD21FA6A
:104EC00004F0294630BD94F0000F83F4801306BF30
:104ED00081F480110134013D4EE77FEA645C18BF24
:104EE0007FEA655C29D094EA050F08BF90EA020FBB
:104EF00005D054EA000C04BF1946104630BD91EAB3
:104F0000030F1EBF0021002030BD5FEA545C05D1B5
:104F10004000494128BF41F0004130BD14F58004F4
:104F20003CBF01F5801130BD01F0004545F0FE4168
:104F300041F470014FF0000030BD7FEA645C1ABF9D
:104F4000194610467FEA655C1CBF0B46024650EAD4
:104F5000013406BF52EA033591EA030F41F4002100
:104F600030BD00BF90F0000F04BF0021704730B586
:104F70004FF4806404F132044FF000054FF000015B
:104F800050E700BF90F0000F04BF0021704730B51C
:104F90004FF4806404F1320410F0004548BF4042F1
:104FA0004FF000013EE700BF42004FEAE2014FEA46
:104FB00031014FEA02701FBF12F07F4393F07F4F21
:104FC00081F06051704792F0000F14BF93F07F4F53
:104FD000704730B54FF4607401F0004521F0004196
:104FE00020E700BF50EA010208BF704730B54FF01C
:104FF00000050AE050EA010208BF704730B511F021
:10500000004502D5404261EB41014FF4806404F158
:1050100032045FEA915C3FF4DCAE4FF003025FEADA
:10502000DC0C18BF03325FEADC0C18BF033202EB62
:10503000DC02C2F1200300FA03FC20FA02F001FABC
:1050400003FE40EA0E0021FA02F11444C1E600BF5B
:1050500070B54FF0FF0C4CF4E06C1CEA11541DBF0E
:105060001CEA135594EA0C0F95EA0C0F00F0DEF8D9
:105070002C4481EA030621EA4C5123EA4C5350EABE
:10508000013518BF52EA033541F4801143F480130F
:1050900038D0A0FB02CE4FF00005E1FB02E506F0A0
:1050A0000042E0FB03E54FF00006E1FB03569CF0F5
:1050B000000F18BF4EF0010EA4F1FF04B6F5007FFB
:1050C00064F5407404D25FEA4E0E6D4146EB06066D
:1050D00042EAC62141EA55514FEAC52040EA5E50F6
:1050E0004FEACE2EB4F1FD0C88BFBCF5E06F1ED8A0
:1050F000BEF1004F08BF5FEA500E50F1000041EBD7
:10510000045170BD06F0004646EA010140EA020083
:1051100081EA0301B4EB5C04C2BFD4EB0C0541EAA5
:10512000045170BD41F480114FF0000E013C00F3BA
:10513000AB8014F1360FDEBF002001F0004170BDDE
:10514000C4F10004203C35DA0C341BDC04F11404F7
:10515000C4F1200500FA05F320FA04F001FA05F283
:1051600040EA020001F0004221F0004110EBD37050
:1051700021FA04F642EB06015EEA430E08BF20EA7C
:10518000D37070BDC4F10C04C4F1200500FA04F31F
:1051900020FA05F001FA04F240EA020001F00041B1
:1051A00010EBD37041F100015EEA430E08BF20EA24
:1051B000D37070BDC4F1200500FA05F24EEA020E6C
:1051C00020FA04F301FA05F243EA020321FA04F09B
:1051D00001F0004121FA04F220EA020000EBD37052
:1051E0005EEA430E08BF20EAD37070BD94F0000F52
:1051F0000FD101F00046400041EB010111F4801F86
:1052000008BF013CF7D041EA060195F0000F18BF36
:10521000704703F00046520043EB030313F4801F72
:1052200008BF013DF7D043EA0603704794EA0C0F2C
:105230000CEA135518BF95EA0C0F0CD050EA410642
:1052400018BF52EA4306D1D181EA030101F00041BF
:105250004FF0000070BD50EA410606BF10461946E7
:1052600052EA430619D094EA0C0F02D150EA0136F3
:1052700013D195EA0C0F05D152EA03361CBF104634
:1052800019460AD181EA030101F0004141F0FE41D3
:1052900041F470014FF0000070BD41F0FE4141F457
:1052A000780170BD70B54FF0FF0C4CF4E06C1CEA57
:1052B00011541DBF1CEA135594EA0C0F95EA0C0F0C
:1052C00000F0A7F8A4EB050481EA030E52EA0335C7
:1052D0004FEA013100F088804FEA03334FF08055E8
:1052E00045EA131343EA12634FEA022245EA111515
:1052F00045EA10654FEA00260EF000419D4208BFC6
:10530000964244F1FD0404F5407402D25B084FEA72
:105310003202B61A65EB03055B084FEA32024FF41E
:1053200080104FF4002CB6EB020E75EB030E22BF7B
:10533000B61A754640EA0C005B084FEA3202B6EB3B
:10534000020E75EB030E22BFB61A754640EA5C00EA
:105350005B084FEA3202B6EB020E75EB030E22BF7A
:10536000B61A754640EA9C005B084FEA3202B6EB7B
:10537000020E75EB030E22BFB61A754640EADC003A
:1053800055EA060E18D04FEA051545EA16754FEA9C
:1053900006164FEAC30343EA52734FEAC2025FEABA
:1053A0001C1CC0D111F4801F0BD141EA00014FF049
:1053B00000004FF0004CB6E711F4801F04BF01431A
:1053C0000020B4F1FD0C88BFBCF5E06F3FF6AFAE36
:1053D000B5EB030C04BFB6EB020C5FEA500C50F1C6
:1053E000000041EB045170BD0EF0004E4EEA113149
:1053F00014EB5C04C2BFD4EB0C0541EA045170BD50
:1054000041F480114FF0000E013C90E645EA060E93
:105410008DE60CEA135594EA0C0F08BF95EA0C0FC1
:105420003FF43BAF94EA0C0F0AD150EA01347FF409
:1054300034AF95EA0C0F7FF425AF104619462CE7E0
:1054400095EA0C0F06D152EA03353FF4FDAE104643
:10545000194622E750EA410618BF52EA43067FF494
:10546000C5AE50EA41047FF40DAF52EA43057FF424
:10547000EBAE12E74FEA4102B2F1E04324BFB3F5CD
:10548000001CDCF1FE5C0DD901F0004C4FEAC002BB
:105490004CEA5070B2F1004F40EB830008BF20F09F
:1054A0000100704711F0804F21D113F13872BCBF59
:1054B00001F00040704741F480114FEA5252C2F1AE
:1054C0001802C2F1200C10FA0CF320FA02F018BFF7
:1054D00040F001004FEAC1234FEAD32303FA0CFC4A
:1054E00040EA0C0023FA02F34FEA4303CCE77FEAD9
:1054F000625307D150EA01331EBF4FF0FE4040F423
:105500004000704701F0004040F0FE4040F40000D1
:10551000704700BF80F0004002E000BF81F0004112
:1055200042001FBF5FEA410392EA030F7FEA226C49
:105530007FEA236C6AD04FEA1262D2EB1363C1BFD9
:10554000D218414048404140B8BF5B42192B88BF48
:10555000704710F0004F40F4000020F07F4018BF6B
:10556000404211F0004F41F4000121F07F4118BF8B
:10557000494292EA030F3FD0A2F1010241FA03FC33
:1055800010EB0C00C3F1200301FA03F100F000431B
:1055900002D5494260EB4000B0F5000F13D3B0F1E3
:1055A000807F06D340084FEA310102F10102FE2A52
:1055B00051D2B1F1004F40EBC25008BF20F00100C2
:1055C00040EA03007047490040EB000010F4000F70
:1055D000A2F10102EDD1B0FA80FCACF1080CB2EB03
:1055E0000C0200FA0CF0AABF00EBC2505242184362
:1055F000BCBFD0401843704792F0000F81F4000107
:1056000006BF80F400000132013BB5E74FEA4103D9
:105610007FEA226C18BF7FEA236C21D092EA030F45
:1056200004D092F0000F08BF0846704790EA010FBF
:105630001CBF0020704712F07F4F04D1400028BFEC
:1056400040F00040704712F100723CBF00F50000CE
:10565000704700F0004343F0FE4040F40000704704
:105660007FEA226216BF08467FEA236301464202B0
:1056700006BF5FEA412390EA010F40F480007047C3
:105680004FF0000304E000BF10F0004348BF404269
:105690005FEA000C08BF704743F0964301464FF0A5
:1056A00000001CE050EA010208BF70474FF0000301
:1056B0000AE000BF50EA010208BF704711F0004342
:1056C00002D5404261EB41015FEA010C02BF844612
:1056D0000146002043F0B64308BFA3F18053A3F571
:1056E0000003BCFA8CF2083AA3EBC25310DB01FAB8
:1056F00002FC634400FA02FCC2F12002BCF1004F3C
:1057000020FA02F243EB020008BF20F001007047CC
:1057100002F1200201FA02FCC2F1200250EA4C0020
:1057200021FA02F243EB020008BF20EADC70704766
:105730004FF0FF0C1CEAD0521EBF1CEAD15392EA74
:105740000C0F93EA0C0F6FD01A4480EA010C400250
:1057500018BF5FEA41211ED04FF0006343EA5010AA
:1057600043EA5111A0FB01310CF00040B1F5000FEC
:105770003EBF490041EAD3715B0040EA010062F19B
:105780007F02FD2A1DD8B3F1004F40EBC25008BF85
:1057900020F00100704790F0000F0CF0004C08BFA3
:1057A00049024CEA502040EA51207F3AC2BFD2F170
:1057B000FF0340EAC250704740F400004FF000037E
:1057C000013A5DDC12F1190FDCBF00F000407047B8
:1057D000C2F10002410021FA02F1C2F1200200FAF6
:1057E00002FC5FEA310040F1000053EA4C0308BFBD
:1057F00020EADC70704792F0000F00F0004C02BF0E
:10580000400010F4000F013AF9D040EA0C0093F088
:10581000000F01F0004C02BF490011F4000F013BE2
:10582000F9D041EA0C018FE70CEAD15392EA0C0F50
:1058300018BF93EA0C0F0AD030F0004C18BF31F0BB
:10584000004CD8D180EA010000F00040704790F091
:10585000000F17BF90F0004F084691F0000F91F035
:10586000004F14D092EA0C0F01D142020FD193EAFB
:105870000C0F03D14B0218BF084608D180EA010083
:1058800000F0004040F0FE4040F40000704740F05F
:10589000FE4040F4400070474FF0FF0C1CEAD0522D
:1058A0001EBF1CEAD15392EA0C0F93EA0C0F69D089
:1058B000A2EB030280EA010C49024FEA402037D0F4
:1058C0004FF0805343EA111143EA10130CF00040EB
:1058D0008B4238BF5B0042F17D024FF4000C8B42DB
:1058E00024BF5B1A40EA0C00B3EB510F24BFA3EBBB
:1058F000510340EA5C00B3EB910F24BFA3EB91038B
:1059000040EA9C00B3EBD10F24BFA3EBD10340EAE4
:10591000DC001B0118BF5FEA1C1CE0D1FD2A3FF62A
:1059200050AF8B4240EBC25008BF20F001007047DF
:105930000CF0004C4CEA50207F32C2BFD2F1FF0382
:1059400040EAC250704740F400004FF00003013AB3
:1059500037E792F0000F00F0004C02BF400010F457
:10596000000F013AF9D040EA0C0093F0000F01F06B
:10597000004C02BF490011F4000F013BF9D041EA8D
:105980000C0195E70CEAD15392EA0C0F08D14202C0
:105990007FF47DAF93EA0C0F7FF470AF084676E793
:1059A00093EA0C0F04D14B023FF44CAF08466EE76C
:1059B00030F0004C18BF31F0004CCAD130F000423A
:1059C0007FF45CAF31F000437FF43CAF5FE700BF92
:1059D0004FF0FF3C06E000BF4FF0010C02E000BFBB
:1059E0004FF0010C4DF804CD4FEA40024FEA41035D
:1059F0007FEA226C18BF7FEA236C11D001B052EA13
:105A0000530C18BF90EA010F58BFB2EB030088BFD8
:105A1000C81738BF6FEAE17018BF40F00100704747
:105A20007FEA226C02D15FEA402C05D17FEA236C29
:105A3000E4D15FEA412CE1D05DF8040B704700BF70
:105A4000844608466146FFE70FB5FFF7C9FF002807
:105A500048BF10F1000F0FBD4DF808EDFFF7F4FF40
:105A60000CBF012000205DF808FB00BF4DF808EDD9
:105A7000FFF7EAFF34BF012000205DF808FB00BFFC
:105A80004DF808EDFFF7E0FF94BF012000205DF81E
:105A900008FB00BF4DF808EDFFF7D2FF94BF0120CF
:105AA00000205DF808FB00BF4DF808EDFFF7C8FFC8
:105AB00034BF012000205DF808FB00BF4FEA400220
:105AC0004FEA41037FEA226C02D15FEA402C08D101
:105AD0007FEA236C02D15FEA412C02D14FF0000033
